:100000000C945B060C948C060C948C060C948C0659
:100010000C948C060C948C060C948C060C948C0618
:100020000C948C060C948C060C948C060C948C0608
:100030000C948C060C948C060C948C060C948C06F8
:100040000C948C060C948C060C948C060C948C06E8
:100050000C948C060C948C060C948C060C94D4187E
:100060000C948C060C949E180C9474180C948C06AA
:100070000C948C060C948C060C948C060C948C06B8
:100080000C948C060C948C060C948C060C948C06A8
:100090000C948C060C948C060C948C060C941E19F3
:1000A0000C948C060C948C060C948C060C948C0688
:1000B0000C948C060C948C060C948C060C948C0678
:1000C0000C948C060C948C060C948C060C948C0668
:1000D0000C948C060C948C060C948C060C948C0658
:1000E0000C948C060C9482100C946B080C94590898
:1000F0000C948E0F0C94C70B0C9419070C9465107C
:100100000C942D080C9449110C9405130C948E0634
:100110000C9490160C94820C0C945F070C94800B3A
:100120000C94C9110C9475080C94FE120C94790867
:100130000C9471080C94DC120C94C8060C945008B2
:100140000C9483080C9453080C94F6060C94440801
:100150000C9439110C943D1F0C9405070C94AC07BA
:100160000C947F080C94370B0C9461110C942707A6
:100170000C9467080C9432080C94421A0C94C7062D
:100180000C945D080C94E6160C94BC0E0C9475123D
:100190000C94C9060C9463080C944C080C94ED0F55
:1001A0000C94EB120C9448080C9455110C943213D7
:1001B00000000000003E5B4F5B3E3E6B4F6B3E1C01
:1001C0003E7C3E1C183C7E3C181C577D571C1C5E18
:1001D0007F5E1C00183C1800FFE7C3E7FF001824EF
:1001E0001800FFE7DBE7FF30483A060E2629792999
:1001F00026407F050507407F05253F5A3CE73C5ACE
:100200007F3E1C1C08081C1C3E7F14227F22145FAA
:100210005F005F5F06097F017F006689956A606005
:1002200060606094A2FFA29408047E040810207EFF
:10023000201008082A1C08081C2A08081E10101084
:10024000100C1E0C1E0C30383E3830060E3E0E06CA
:10025000000000000000005F00000007000700141D
:100260007F147F14242A7F2A1223130864623649DC
:100270005620500008070300001C224100004122C4
:100280001C002A1C7F1C2A08083E080800807030C9
:100290000008080808080000606000201008040238
:1002A0003E5149453E00427F40007249494946213E
:1002B00041494D331814127F1027454545393C4AB2
:1002C00049493141211109073649494936464949C9
:1002D000291E000014000000403400000008142211
:1002E000411414141414004122140802015909067F
:1002F0003E415D594E7C1211127C7F494949363E80
:10030000414141227F4141413E7F494949417F0965
:100310000909013E414151737F0808087F00417F70
:1003200041002040413F017F081422417F4040406E
:10033000407F021C027F7F0408107F3E4141413E06
:100340007F090909063E4151215E7F091929462688
:100350004949493203017F01033F4040403F1F208C
:1003600040201F3F4038403F631408146303047863
:1003700004036159494D43007F4141410204081083
:1003800020004141417F04020102044040404040BE
:10039000000307080020545478407F28444438382C
:1003A00044444428384444287F385454541800089E
:1003B0007E090218A4A49C787F0804047800447D78
:1003C00040002040403D007F1028440000417F4015
:1003D000007C047804787C08040478384444443869
:1003E000FC1824241818242418FC7C080404084849
:1003F0005454542404043F44243C4040207C1C209A
:1004000040201C3C4030403C44281028444C9090F4
:10041000907C4464544C440008364100000077004E
:1004200000004136080002010204023C2623263C5B
:100430001EA1A161123A4040207A385454555921E6
:1004400055557941225454784221555478402054CE
:100450005579400C1E52721239555555593954541C
:10046000545939555454580000457C410002457D8B
:10047000420001457C407D1211127DF0282528F0B4
:100480007C545545002054547C547C0A097F4932E1
:10049000494949323A4444443A324A4848303A4158
:1004A00041217A3A42402078009DA0A07D3D424201
:1004B000423D3D4040403D3C24FF2424487E49438A
:1004C000662B2FFC2F2BFF0929F620C0887E0903FD
:1004D00020545479410000447D413048484A323824
:1004E0004040227A007A0A0A727D0D19317D262950
:1004F000292F28262929292630484D402038080848
:10050000080808080808382F10C8ACBA2F1028347B
:10051000FA00007B000008142A142222142A14086E
:100520005500550055AA55AA55AAFF55FF55FF007D
:100530000000FF00101010FF00141414FF00101032
:10054000FF00FF1010F010F0141414FC001414F746
:1005500000FF0000FF00FF1414F404FC1414171033
:100560001F10101F101F1414141F00101010F00083
:100570000000001F101010101F10101010F01000BD
:100580000000FF101010101010101010FF100000CD
:1005900000FF140000FF00FF00001F10170000FC08
:1005A00004F414141710171414F404F40000FF00DA
:1005B000F714141414141414F700F7141414171463
:1005C00010101F101F141414F4141010F010F00069
:1005D000001F101F0000001F14000000FC1400008A
:1005E000F010F01010FF10FF141414FF141010106E
:1005F0001F00000000F010FFFFFFFFFFF0F0F0F021
:10060000F0FFFFFF0000000000FFFF0F0F0F0F0FB4
:100610003844443844FC4A4A4A347E020206060200
:100620007E027E0263554941633844443C04407E67
:10063000201E2006027E020299A5E7A5991C2A49E0
:100640002A1C4C7201724C304A4D4D30304878486B
:1006500030BC625A463D3E494949007E0101017E57
:100660002A2A2A2A2A44445F444440514A444040AA
:10067000444A51400000FF0103E080FF00000808E9
:100680006B6B083612362436060F090F0600001869
:10069000180000001010003040FF0101001F010190
:1006A0001E00191D1712003C3C3C3C0000000000DD
:1006B000000103070F1F3F7F0080C0E0F0F8FCFE41
:1006C00000000A0B02090C0D0E08070304010000CC
:1006D000000000000000000000000000000000001A
:1006E00000000000000000000000000012111000D7
:1006F00000000000000000000000000000000000FA
:1007000000000000000000002100240027002A0053
:100710002D003000330001010000040107010A012F
:10072000DB40A4A62EAF2000A1C8D300408DAED5DB
:1007300080A800002200250028002B002E00310098
:10074000340002010000050108010B0100006000F7
:1007500000000000000000000000000000E00000B9
:10076000000000000000000000000001E0000000A8
:100770000000000000000000000001F00000000088
:1007800000000000000000000003F0000000000076
:10079000000000000000000007F000000000000062
:1007A0000000000000000007F8000000000000004A
:1007B0000000000000000FF800000003C0007E00F1
:1007C0000001E0007F0FF800000003C000FE000001
:1007D00001E000FFEFF800000003C000FE00000190
:1007E000E000FFFFF800000003C000F00000000F71
:1007F000007FFE7FC0000003C000F00000000F007B
:100800003FFE7FF83FF1FBCFFCFEF3BC3DEFE01F66
:10081000FE7FFF7FFBFFDFFEFEFFBC3DEFE01FC65C
:10082000FFFF7FFBFFDFFEFEFFBC3DEFE00FE3C7F6
:10083000FE787BC3DE1EF0FFBC3DEF0007FF87FCA8
:10084000787BC3DE1EF0F83C3DEF0001FFFFF000B7
:100850007BC3C01EF0F03C3DEF0001F37FE03FFBA7
:10086000C3CFFEF0F03C3DEF0003E33F807FFBC3CE
:10087000DFFEF0F03C3DEF0007E73C00787BC3DE95
:100880001EF0F03C3DEF0007FFBE00787BC3DE1E8C
:10089000F0F03C3DEF0007FFFE00787BC3DE1EF06A
:1008A000F03C3DEF000FFFFE007FFBFFDFFEF0F0AE
:1008B0003FFDEFE00FFFFF007FFBFFDFFEF0F03FAB
:1008C000FDEFE00FF9FF003E79F9CF9EF0F01F3DFC
:1008D000E7E01FF1FF000000000000000000000042
:1008E000001F80FF007FFFFFFFFFFFFFFFFFFFE014
:1008F0001C007F007FFFFFFFFEB46D888D18E000B5
:10090000001F007FFFFFFFFE95AD7DB577E0000083
:100910000F007FFFFFFFFEA5AD9D8D19E0000006D3
:10092000007FFFFFFFFEB5ADEDB57EE000000000EB
:1009300000018000000000000000000003800000B3
:100940000000000000000007C000000000000000E0
:10095000000007C00000000000000000000FC00001
:1009600000000000000000001FE000000000000088
:100970000000001FE00000000000000000003FE059
:100980000000000000000000003FF0000000000038
:10099000000000007FF0000000000000001FF87F52
:1009A000F0000000000000003FFE7FF000000000AB
:1009B0000000003FFF7FF0000000000000001FFF6C
:1009C000FBE0000000000000000FFFF9FFC0000086
:1009D000000000000FFFF9FFF80000000000000712
:1009E000FFF1FFFF00000000000003FC73FFFF8029
:1009F000000000000001FE3FFFFF8000000000003B
:100A000000FF1E0FFF000000000000007FFE1FFC23
:100A1000000000000000003FFFFFF80000000000A1
:100A200000000FDFFFE0000000000000001F19FFC2
:100A3000C0000000000000003F3CFF00000000007C
:100A40000000007E7CF800000000000000007FFE37
:100A50007C0000000000000000FFFFFC0000000020
:100A600000000000FFFFFE0000000000000000FF8B
:100A7000FFFE0000000000000001FFEFFE0000008C
:100A80000000000001FFCFFE000000000000000396
:100A9000FF07FE0000000000000003FC07FE00004E
:100AA000000000000003F003FE0000000000000052
:100AB000018000FE000000000000000000007E0039
:100AC0000000000000000000003E000000000000E8
:100AD000000000000C000000000000078000FC0087
:100AE0000003C0000000078001FC000003C00000FC
:100AF00000078001FC000003C0000000078001E047
:100B00000000001E000000078001E00000001E0041
:100B10007FE3F79FF9FDE7787BDFC0FFF7FFBFFDBD
:100B2000FDFF787BDFC0FFF7FFBFFDFDFF787BDFB8
:100B3000C0F0F787BC3DE1FF787BDE00F0F787BCB3
:100B40003DE1F0787BDE0000F787803DE1E0787BD7
:100B5000DE007FF7879FFDE1E0787BDE00FFF7870F
:100B6000BFFDE1E0787BDE00F0F787BC3DE1E07897
:100B70007BDE00F0F787BC3DE1E0787BDE00F0F73C
:100B800087BC3DE1E0787BDE00FFF7FFBFFDE1E0E1
:100B90007FFBDFC0FFF7FFBFFDE1E07FFBDFC07C35
:100BA000F3F39F3DE1E03E7BCFC00000000000007A
:100BB0000000000000FFFFFFFFFFFFFFFFFFFFC07F
:100BC000FFFFFFFFFD68DB111A31C0FFFFFFFFFDD4
:100BD0002B5AFB6AEFC0FFFFFFFFFD4B5B3B1A3355
:100BE000C0FFFFFFFFFD6B5BDB6AFDC05353443169
:100BF00033303620616C6C6F636174696F6E206690
:100C000061696C6564000000200023002600290053
:100C10002C002F0032000001000003010601090131
:100C20002200FF2100050505050705080808080240
:100C30000202020A0A080804040404010101010175
:100C40000101010303030303030303040707070C64
:100C50000C0C0C0C0C0C0C0202020206060606061A
:100C60000606060B0B0B0B0B0B0B0B0102102020C7
:100C700008081020401020408002010201080402F0
:100C80000101020408102040808040201008040266
:100C900001800402018040201008040201080402BF
:100CA00001010204081020408001020408102040C5
:100CB0008000421A3D1F11241FBECFEFD1E2DEBFDC
:100CC000CDBF00E00CBF12E0A0E0B2E0EAEEF5E438
:100CD00000E00BBF02C007900D92A239B107D9F70F
:100CE00024E0A2E9B2E001C01D92A635B207E1F707
:100CF00016E0CAE5D6E000E006C021970109802F82
:100D0000FE010E94AA21C935D10780E00807A9F792
:100D10000E94E51A0C94E3220C9400000895CF92EF
:100D2000DF92EF92FF92CF93DF93B0914604A0E061
:100D30008111AB2F8091470490E0880F991FAC017F
:100D40004A5F534FC0904C04D0904D04E0904E0445
:100D5000F0904F0430E020E0FA01C591D491E88191
:100D6000B90190E080E0EB23EA130AC02F5F3F4F08
:100D70006C157D058E059F0578F36FEF7FEFCB0136
:100D8000DF91CF91FF90EF90DF90CF90089508957D
:100D90000895AF92BF92CF92DF92EF92FF920F939E
:100DA0001F93CF93DF936C017B018B01040F151F01
:100DB000EB015E01AE18BF08C017D10759F0699169
:100DC000D601ED91FC910190F081E02DC6011995BD
:100DD000892B79F7C501DF91CF911F910F91FF907A
:100DE000EF90DF90CF90BF90AF900895FC01538DAE
:100DF000448D252F30E0842F90E0821B930B5417F5
:100E000010F0CF96089501970895FC01918D828D81
:100E1000981761F0A28DAE0FBF2FB11D5D968C911A
:100E2000928D9F5F9F73928F90E008958FEF9FEF59
:100E30000895FC01918D828D981731F0828DE80F15
:100E4000F11D858D90E008958FEF9FEF0895FC01CF
:100E5000918D228D892F90E0805C9F4F821B91099C
:100E60008F739927089586E593E00E94270721E074
:100E7000892B09F420E0822F0895FC01A48DA80F8E
:100E8000B92FB11DA35ABF4F2C91848D90E00196CC
:100E90008F739927848FA689B7892C93A089B189EC
:100EA0008C91837080648C93938D848D981306C08D
:100EB0000288F389E02D80818F7D80830895EF92F1
:100EC000FF920F931F93CF93DF93EC0181E0888F04
:100ED0009B8D8C8D98131AC0E889F989808185FFD4
:100EE00015C09FB7F894EE89FF896083E889F98976
:100EF00080818370806480839FBF81E090E0DF9178
:100F0000CF911F910F91FF90EF900895F62E0B8DCA
:100F100010E00F5F1F4F0F731127E02E8C8D8E1185
:100F20000CC00FB607FCFACFE889F989808185FFEC
:100F3000F5CFCE010E943D07F1CFEB8DEC0FFD2FD9
:100F4000F11DE35AFF4FF0829FB7F8940B8FEA89A7
:100F5000FB8980818062CFCFCF93DF93EC01888DB6
:100F60008823B9F0AA89BB89E889F9898C9185FD24
:100F700003C0808186FD0DC00FB607FCF7CF8C91B2
:100F800085FFF2CF808185FFEDCFCE010E943D0726
:100F9000E9CFDF91CF91089580E090E0892B29F08F
:100FA0000E94330781110E94000080E090E0892BAD
:100FB00049F080E090E0892B29F00E940000811127
:100FC0000E94000080E090E0892B49F080E090E0F2
:100FD000892B29F00E94000081110E94000080E00E
:100FE00090E0892B49F080E090E0892B29F00E9465
:100FF000000081110C9400000895282F30E0F901C1
:10100000E054F94F9491F901E559F34F44912B5D68
:10101000334FF9012491222309F435C0992311F1AA
:1010200091509231F8F4E92FF0E08827E55EF74F10
:101030008F4F0C94AA214C0850082D0844084808EA
:101040003208530859085D08630867086B0871087F
:101050007508320879087F088308809180008F77AF
:1010600080938000E22FF0E0EE0FFF1FEE5CF84F60
:10107000A591B4918FB7F894EC91611148C0409557
:101080004E234C938FBF0895809180008F7DE8CFD1
:1010900080918000877FE4CF84B58F7784BDE2CFD5
:1010A00084B58F7DFBCF8091B0008F778093B000A7
:1010B000D9CF8091B0008F7DF9CF809190008F774C
:1010C00080939000CFCF809190008F7DF9CF809159
:1010D0009000877FF5CF8091A0008F778093A0004C
:1010E000C1CF8091A0008F7DF9CF8091A000877F34
:1010F000F5CF809120018F7780932001B3CF80912D
:1011000020018F7DF9CF80912001877FF5CF4E2B75
:10111000B8CFCF93DF9390E0FC01E559F34F2491D2
:101120008B5D934FFC0184918823D1F090E0880F70
:10113000991FFC01EA5FF84FA591B491FC01EE5CA8
:10114000F84FC591D491623071F49FB7F8943C91F7
:10115000822F809583238C93E8812E2B28839FBF39
:10116000DF91CF9108958FB7F894EC912E2B2C93AB
:101170008FBFF6CF3FB7F89480914303909144031B
:10118000A0914503B091460326B5A89B05C02F3F0B
:1011900019F00196A11DB11D3FBFBA2FA92F982F9D
:1011A0008827BC01CD01620F711D811D911D42E098
:1011B000660F771F881F991F4A95D1F708958F9260
:1011C0009F92AF92BF92CF92DF92EF92FF924B012C
:1011D0005C010E94BA086B017C010E94BA086C197C
:1011E0007D098E099F09683E734081059105A8F32A
:1011F00021E0821A9108A108B10888EEC80E83E0A8
:10120000D81EE11CF11C81149104A104B10429F73A
:10121000FF90EF90DF90CF90BF90AF909F908F9016
:101220000895CF92DF92EF92FF920F931F93CF9387
:10123000DF93CDB7DEB7C054D1400FB6F894DEBF10
:101240000FBECDBF2FB7F89480914E0390914F03FE
:10125000A0915003B09151032FBF40914804509189
:10126000490460914A0470914B048C019D01041B58
:10127000150B260B370BB901A801403D57406105FE
:10128000710590F480915004C05CDE4F0FB6F89465
:10129000DEBF0FBECDBFDF91CF911F910F91FF90A9
:1012A000EF90DF90CF900895809348049093490485
:1012B000A0934A04B0934B0410924304109242044A
:1012C000109241041092400410923F0462E0809119
:1012D00044040E94890861E070E080E090E00E9490
:1012E000DF0861E0809144040E94890860E08091F9
:1012F00044040E94FD07809145048551823020F509
:101300008BE291E10197F1F762E0809144040E9441
:1013100089088091510490E08230910538F0880F5F
:10132000991F880F991F05970197F1F7F89480E0AE
:101330000E948F066F3F7F4F8F4F9F4F61F4109237
:101340005004789480E0A0CF64E170E080E090E009
:101350000E94DF08D9CF81E00E948F066F3F7F4F48
:101360008F4F9F4F61F38E010F5F1F4F6E018FEB09
:10137000C81A8EEFD80A780180E00E948F06F70124
:10138000608371838283938381E00E948F06F701DB
:101390006483758386839783F8E0EF0EF11CEC1469
:1013A000FD0451F7789430E020E0F801C080D1804E
:1013B000E280F3804481558166817781FFEFCF160B
:1013C000DF06EF06FF0631F04F3F8FEF5807680743
:1013D000780719F410925004B5CFF90183E0F59520
:1013E000E7958A95E1F7E15CFB4F8081880FC41691
:1013F000D506E606F70610F180832F5F3F4F085FA2
:101400001F4F2832310589F64091430420913F0453
:1014100080914004280F3327331F80914104280F07
:10142000311D80914204820F932F911D99274817F7
:10143000190681F681E08093500426CF8160DCCFCD
:10144000EF92FF920F931F93CF93DF93EC01EC8009
:10145000FD806E157F050CF070C057FF04C0240F8F
:10146000351F50E040E08E819F81FA01E20FF31FAB
:101470008E179F071CF49C01241B350B12161306B4
:101480000CF05BC0922F842F8695869586958E9D55
:10149000D0018F9DB00D11246A0F7B1FAF8DB8A1B5
:1014A000A60FB71F477049F188E0841B482F682FAB
:1014B00070E0FB01E854F94FE491281708F063C08D
:1014C000621B71092FEF30E002C0359527956A95B0
:1014D000E2F7E2230130110539F0B0F102301105D5
:1014E00061F58C91E82702C08C91E82BEC9394175E
:1014F00020F12C813D81A20FB31FE92FE41BE830BE
:1015000078F00230110521F58E2F9C9190959C93D7
:101510002C813D81A20FB31F88508830B0F7E7704F
:10152000EE2359F0F0E0E055F94FE4910130110558
:10153000F9F010F10230110519F1DF91CF911F91EF
:101540000F91FF90EF900895E0958C91E823CECF16
:1015500081E00115110509F480E081959E2F8C939F
:101560002C813D81A20FB31F98509830C0F7D7CF80
:101570008C91E82BEC93E1CFE0958C91E823FACFA6
:101580008C91E827F7CF0130110509F4ADCFE0F2D7
:101590000230110509F4A5CFAE0DBF1DAECF0F93DC
:1015A0001F93CF93DF9377FF04C0260F371F70E0A0
:1015B00060E0DC011496CD91DC91FB01E20FF31F9A
:1015C000CE17DF071CF49E01261B370B12161306DD
:1015D0004CF5FA0157FD3796A3E0F595E795AA95E6
:1015E000E1F7EC9FD001ED9FB00DFC9FB00D1124F1
:1015F0006A0F7B1FDC015F96ED91FC91E60FF71FF0
:101600004770552781E090E001C0880F4A95EAF7BE
:10161000482F0130110559F0A8F02E0F3F1F02305E
:101620001105E1F0DF91CF911F910F9108952E0FD9
:101630003F1FE217F307B1F38191DF011197842B6C
:101640008C93F7CF80952E0F3F1FE217F30751F3CE
:101650009191DF01119798239C93F7CFE217F3073D
:1016600009F38191DF01119784278C93F7CF0F93B2
:101670001F93FA01DC0156964C9156974230E9F0DF
:101680004330A1F1413061F514964D915C91DA013E
:10169000AE1BBF0BFD01E21BF30B77FD0BC0DC01A2
:1016A00016964D915C916417750724F4AB01BF0148
:1016B0000E94CF0A1F910F91089514964D915C914D
:1016C000DA01A61BB70BBD0161507109DC0116964A
:1016D0004D915C91DA01AE1BBF0BFD01E21BF30BD8
:1016E00077FDE8CFAF010E94200AE4CF16964D9116
:1016F0005C91DA01A61BB70BBD0161507109CDCF1A
:101700000F931F93FA01DC0156964C915697423085
:10171000A9F0433091F1413019F514964D915C9147
:10172000DA01AE1BBF0BFD013197F7FD04C0AB0121
:10173000BF010E94200A1F910F91089514964D91A8
:101740005C91DA01A61BB70BBD01DC0116964D9129
:101750005C91DA01AE1BBF0BFD013197621B730B6D
:10176000F7FDE9CFDC0116964D915C91E417F50782
:1017700014F7AF010E94CF0ADECF16964D915C910F
:10178000DA01A61BB70BBD01621B730BCECFFC01A8
:1017900077FD64C080859185681779070CF05EC07D
:1017A00057FD5CC082859385481759070CF056C0D9
:1017B00086898230B1F0833029F1813041F484810F
:1017C0009581841B950BAB01BC01615071092130DF
:1017D000310509F108F443C02230310509F463C032
:1017E000089584819581DC01A61BB70BBD01615072
:1017F000710986819781DC01A41BB50BAD014150B5
:101800005109E5CF86819781861B970BBA01AC0100
:1018100041505109DCCFCA0157FD0796A3E09595C9
:101820008795AA95E1F7A481B5818A9F90018B9F46
:10183000300D9A9F300D1124620F731F078CF0A199
:10184000E02DE60FF71F4770552721E030E001C07B
:10185000220F4A95EAF78081822B80830895CA017E
:1018600057FD079633E0959587953A95E1F7A48162
:10187000B5818A9F90018B9F300D9A9F300D112466
:10188000620F731F078CF0A1E02DE60FF71F477062
:10189000552781E090E001C0880F4A95EAF78095CE
:1018A00090818923DACFCA0157FD079623E09595E9
:1018B00087952A95E1F7A481B5818A9F90018B9F36
:1018C000300D9A9F300D1124620F731F078CF0A109
:1018D000E02DE60FF71F4770552721E030E001C0EB
:1018E000220F4A95EAF780818227B7CF08958EBDEF
:1018F00000000DB407FEFDCF8EB508958CBD9DBDD3
:1019000008950895FC016370668B8481958126811A
:101910003781613039F0633029F0918780873387D0
:1019200022870895318720879387828708952F9291
:101930003F924F925F926F927F928F929F92AF925F
:10194000BF92CF92DF92EF92FF920F931F93CF93AC
:10195000DF93CDB7DEB76A970FB6F894DEBF0FBE40
:10196000CDBF9A8F898F7A8369834A01D22E1887D7
:101970000F833701BC2CDC0159962D913C915A976D
:101980002115310509F015C118968D919C91199773
:10199000681779070CF0D7C11A968D919C9148175A
:1019A00059070CF0D0C14C2C512CB6E0CB9E600DE9
:1019B000711D11247C876B87161617060CF0C3C1A6
:1019C000EA2DF0E0FA87E98793E0EE0FFF1F9A9582
:1019D000E1F7F88BEF87CF01840F951F18161906D2
:1019E0000CF0B1C1A98DBA8D58968C91811104C0AB
:1019F000BFEABD1508F4D394A98DBA8DED91FC9181
:101A000011970284F385E02DCD011995B5E0DB9E99
:101A1000C0011124E981FA81FC83EB83312C212C54
:101A20009C0120553E4F388F2F8B4A2D50E05E8B06
:101A30004D8BEF89F88DE20DF31D44919E828D82CE
:101A4000D12CC12C69817A81620D731D7A8B698BCF
:101A5000842F90E09C8B8B8BE98DFA8DA081B181D6
:101A600040FF82C0F1E0BF126FC0AF126DC01C9684
:101A7000ED91FC912F813885A4014C0D5D1D698984
:101A80007A89898D9A8D1995EB89FC89F595E79569
:101A90004E2F5FEFC51AD50A6D817E818D899E8993
:101AA000680F791F7E836D8398E0C916D10481F693
:101AB000AFEF2A1A3A0AEB81FC81E40DF51DFC8395
:101AC000EB83F5E02F16310409F0B3CF2F81388571
:101AD00026153705B9F0A98DBA8DED91FC91B1E0CD
:101AE000BB1257C0AB1255C069817A816B5F7F4FC3
:101AF0000088F189E02D830128E030E0A401898D80
:101B00009A8D1995A98DBA8DED91FC911197068842
:101B1000F789E02DCD016A960FB6F894DEBF0FBEAF
:101B2000CDBFDF91CF911F910F91FF90EF90DF908C
:101B3000CF90BF90AF909F908F907F906F905F906D
:101B40004F903F902F9019941E96ED91FC91EF804D
:101B5000F88409851A8592014D815E816B817C81B3
:101B6000898D9A8D199590CF2F8138852615370547
:101B700009F48ACF31E0B31207C0A31205C01C9646
:101B8000ED91FC91930178CF1E96ED91FC9173013C
:101B9000E0CF6B857C85641975090684F785E02D97
:101BA00073010F8518899201A401898D9A8D199569
:101BB000A9CFF90134969491329745915491D91A4D
:101BC000B7E0DB9E400D511D1124F90125913491A0
:101BD0003C8B2B8BFA0125903490FA01329674904D
:101BE00031963491398B329664903196449041E02D
:101BF0004C1518F04A1508F07FC0662D062C000C15
:101C0000770B7C836B83842D042C000C990B9E83B3
:101C10008D83A98DBA8DED91FC9111970284F38586
:101C2000E02DCD011995512CD12CC12CEA2DF0E0DD
:101C3000FA87E9872B2D30E03C872B87A401440DE0
:101C4000511D47FC5A95588F4F8B69817A81660DDB
:101C5000711D67FC7A957E876D877989C71608F0B4
:101C600051CF2C2D30E04D815E81420F531FA9854D
:101C7000BA854A9FC0014B9F900D5A9F900D112429
:101C8000FC01E80DF91DF88BEF87852D612C4F893C
:101C9000588D420F531F5E8B4D8B671408F050C058
:101CA00044244394480E877041F4C1010196EB89A6
:101CB000FC89E20DF31DD4901C01D7FE19C0A98D3B
:101CC000BA8DED91FC91662D70E0B1E0BB1219C0A8
:101CD000AB1217C02D853E85620F731F0484F585F6
:101CE000E02D2F8138854D895E89898D9A8D1995D2
:101CF000DD0C6394842DD1CF1E821D821C821B8239
:101D000088CF4B815C81640F751FAB85BC856A9F52
:101D1000C0016B9F900D7A9F900D112469817A818B
:101D2000680F791F0684F785E02DEF80F884098518
:101D30001A859D014F855889898D9A8D1995D8CF1F
:101D4000570CC3948ACF6A960FB6F894DEBF0FBEC5
:101D5000CDBFDF91CF911F910F91FF90EF90DF905A
:101D6000CF90BF90AF909F908F907F906F905F903B
:101D70004F903F902F9008958F929F92AF92CF9265
:101D8000EF92FF920F931F93CF93DF93EC01262FD7
:101D9000898D9A8D009709F051C06A30D1F41D8663
:101DA0001C868D8948E0849F900111248E859F8533
:101DB000820F931F9F878E8781E090E0DF91CF9104
:101DC0001F910F91FF90EF90CF90AF909F908F90C9
:101DD00008956D3089F3CC88AD888F898823C1F050
:101DE0008C859D8536E0C39E800D911D112448850C
:101DF00059854817590764F44E855F851D861C86F2
:101E000038E0A39EC0011124840F951F9F878E8701
:101E1000EA88FB88088919894E855F856C857D85F0
:101E2000CE010E94970C2C898C859D8546E0249FCD
:101E3000800D911D11249D878C87BECF6A3069F477
:101E40001D861C86FC013896E4912D898E859F8520
:101E5000E29F800D911D1124ADCF6D3009F4ACCF00
:101E6000FC0134963491631708F4A6CF3296E491BE
:101E7000E61708F4A1CFFC01329685909490462F86
:101E8000431B342F47E0349F800C911C1124F40134
:101E9000329634913196E4913323A9F1EE2399F1EE
:101EA000CC88F4013596E491AD884F89442301F143
:101EB0000E2E000CFF0BE30FF11DCE9EA001CF9E56
:101EC000500D11246C857D85460F571F68857985D7
:101ED000641775076CF44E855F851D861C86FC01B2
:101EE0003896E491AE9E400D511D11245F874E87B8
:101EF000EA88FB88088919894E855F856C857D8510
:101F0000CE010E94970CF4013496E4912C898C85C3
:101F10009D85E29F800D911D11248DCF6F927F9240
:101F20008F929F92AF92BF92CF92DF92EF92FF92E9
:101F30000F931F93CF93DF93EC016B015A0139018B
:101F40004801E881F9810284F385E02D1995E88143
:101F5000F9810288F389E02D87019301A501B6017B
:101F6000CE011995A501480D591D41505109E8812F
:101F7000F9810288F389E02D9301B601CE0119950C
:101F8000E881F9810088F189E02D9401A501B6016D
:101F9000CE011995C60CD71CB60161507109E881B4
:101FA000F9810088F189E02D9401A501CE011995F0
:101FB000E881F9810688F789E02DCE01DF91CF9184
:101FC0001F910F91FF90EF90DF90CF90BF90AF9057
:101FD0009F908F907F906F9019946F927F928F92C5
:101FE0009F92AF92BF92CF92DF92EF92FF920F93A8
:101FF0001F93CF93DF935C01EB016A014901380124
:102000008701DC01ED91FC916217730719F56416E5
:1020100075062CF0962D872D3A01C92ED82E9601E3
:10202000261937092F5F3F4F048CF58DE02DA30152
:10203000BE01C5011995DF91CF911F910F91FF90BE
:10204000EF90DF90CF90BF90AF909F908F907F9058
:102050006F9008954615570591F42617370724F019
:10206000892D4B01C22FD82F9E01281939092F5FC6
:102070003F4F068CF78DE02DA601B401DACF028424
:10208000F385E02D1995D501ED91FC910488F58932
:10209000E02D83019401A601BE01C5011995D5016A
:1020A000ED91FC910688F789E02DC501DF91CF9174
:1020B0001F910F91FF90EF90DF90CF90BF90AF9066
:1020C0009F908F907F906F901994EF92FF920F9353
:1020D0001F93DC011A960D911C911B9718962D9158
:1020E0003C911997ED91FC9100A0F1A1E02D7B01AD
:1020F00050E040E070E060E019951F910F91FF9073
:10210000EF9008954F925F926F927F928F929F927D
:10211000AF92BF92CF92DF92EF92FF920F931F93F5
:10212000CF93DF936C012B015A0139014801DC0187
:10213000ED91FC910284F385E02D1995E201640C88
:10214000751CD601ED91FC91C615D7055CF400888D
:10215000F189E02D87019401A501BE01C601199501
:102160002196EFCF0688F789E02DC601DF91CF9148
:102170001F910F91FF90EF90DF90CF90BF90AF90A5
:102180009F908F907F906F905F904F9019948F9257
:102190009F92AF92BF92CF92DF92EF92FF920F93F6
:1021A0001F93CF93DF93EC015B014A016901E88142
:1021B000F9810284F385E02D199595012C0D3D1DC3
:1021C00021503109E881F9810488F589E02D7801F1
:1021D0008401A401B501CE011995E881F981068831
:1021E000F789E02DCE01DF91CF911F910F91FF90E4
:1021F000EF90DF90CF90BF90AF909F908F90199409
:102200008F929F92AF92BF92CF92DF92EF92FF9206
:102210000F931F93CF93DF93EC015B014A01690198
:102220007801E881F9810284F385E02D1995C80CC5
:10223000D91C860101501109E881F9810488F589CA
:10224000E02D9501A401B501CE011995E881F98130
:102250000688F789E02DCE01DF91CF911F910F9174
:10226000FF90EF90DF90CF90BF90AF909F908F90B6
:102270001994EF92FF920F931F93DC01ED91FC9163
:1022800000A0F1A1E02D19951F910F91FF90EF9003
:1022900008950F931F93DC01ED91FC91068CF78D4F
:1022A000E02D19951F910F9108950F931F93DC0155
:1022B000ED91FC91048CF58DE02D19951F910F91F6
:1022C0000895DC01ED91FC910084F185E02D1994D5
:1022D0003F924F925F926F927F928F929F92AF92B6
:1022E000BF92CF92DF92EF92FF920F931F93CF9303
:1022F000DF935C017B014A016901390187E0680EC7
:10230000711C93E0759467949A95E1F72B01400E48
:10231000511E10E000E0312CD0E0C0E0CE0187700B
:102320009927330C892B59F4FE0183E0F595E79545
:102330008A95E1F7E00FF11FE80DF91D349037FEA3
:102340000AC021E030E0A701B5016C0F7D1F8FEFBF
:1023500093E00E9461112196CC16DD06F9F68FEF0D
:10236000E81AF80A060D171DE414F504A9F6DF9122
:10237000CF911F910F91FF90EF90DF90CF90BF9082
:10238000AF909F908F907F906F905F904F903F9015
:1023900008952F923F924F925F926F927F928F9209
:1023A0009F92AF92BF92CF92DF92EF92FF920F93E4
:1023B0001F93CF93DF9300D000D0CDB7DEB73C01A1
:1023C0006A013E832D83FC82EB825801A41AB50A70
:1023D000B7FE03C0B194A194B1088D809E80861A87
:1023E000970A97FE03C09194819491088A149B04E4
:1023F0005CF0902F812F0D811E819D838E839C2DFB
:102400008D2D6B01692F782F0C151D055CF09D81BA
:102410008E817E836D83692F782F902F812F860187
:10242000C92ED82E1601201A310A2B012D813E818A
:10243000421A530A57FE03C0519441945108710146
:1024400037FE03C03FEFE31AF30AF594E7948D815A
:102450009E81861797075CF5A1E0B0E0BA83A98357
:10246000C016D1064CF1D301ED91FC910484F585A1
:10247000E02D2B813C81A8016D817E818A149B0413
:102480001CF04D815E81B801C3011995E418F5086F
:10249000F7FE0AC02D813E8189819A81280F391F5C
:1024A0003E832D83E20CF31C0F5F1F4FD9CF2FEF1C
:1024B0003FEF3A832983D4CF26960FB6F894DEBF38
:1024C0000FBECDBFDF91CF911F910F91FF90EF9085
:1024D000DF90CF90BF90AF909F908F907F906F9044
:1024E0005F904F903F902F90089508952091F802AB
:1024F000260F3327331F21323105ECF420911C03C2
:10250000FC0190E080E0243069F082E00895A09121
:10251000F8022191AC0148525D4FA40FB52FB11DB7
:102520002C930196861798F38091F802680F6093B8
:10253000F80280E0089581E0089510921C0381E084
:1025400080931E0310921D0361E084E10E94FD0749
:1025500061E085E10E94FD07E9EBF0E080818E7F7C
:10256000808380818D7F808388E48093B80085E4B8
:102570008093BC000895CF93DF9391E09093D702AE
:102580008823B9F0C091B800D091BA008091BC0006
:102590008A7B8093BC0060E084E10E94FD0760E0DC
:1025A00085E10E94FD070E949D12D093BA00C0935E
:1025B000B800DF91CF910895E0914D0380914C03D5
:1025C000E81730F4F0E0EE54FD4F808190E008957C
:1025D0008FEF9FEF089590914D0380914C032FEF63
:1025E0003FEF981748F4E92FF0E0EE54FD4F2081BB
:1025F00030E09F5F90934D03C901089580914C0393
:1026000090914D03891B990B0895CF92DF92EF9221
:10261000FF920F931F93CF93DF937C01CB018A012D
:1026200020915503222389F0EB016B01C40ED51EC6
:10263000CC15DD0569F06991D701ED91FC91019010
:10264000F081E02DC7011995F3CF642F0E94761217
:10265000C801DF91CF911F910F91FF90EF90DF9014
:10266000CF900895CF93DF931F92CDB7DEB76983E4
:10267000209155032223F9F020915203203258F083
:1026800021E030E0FC013383228390E080E00F9072
:10269000DF91CF91089580915303E82FF0E0EE563B
:1026A000FD4F998190838F5F8093530380935203F2
:1026B00081E090E0ECCF61E0CE0101960E947612BD
:1026C000F7CFCF92DF92EF92FF920F931F93CF93AA
:1026D000DF93D091520381E0D13208F09CC0C091C9
:1026E00054030E94BA086B017C0180911C03811184
:1026F0006CC082E080931C0381E080931E038FEF07
:1027000080931B0310924003D0933F03A2E9B2E0F1
:10271000EFE1F3E080E0D8138DC010924103809187
:102720004103CC0FC82BC093410380911D0381301E
:1027300009F084C010921D030E94BA086B017C014D
:10274000809141038093BB008091D3029091D40289
:10275000A091D502B091D602892B8A2B8B2BA1F0A8
:102760000E94BA080091D3021091D4022091D502A0
:102770003091D6026C197D098E099F09061717073B
:102780002807390708F442C08091BC0083FDD8CFE8
:1027900085EC8093BC000E94BA086B017C0180919B
:1027A0001C03823009F44CC080911B038F3F09F455
:1027B00069C080911B03803209F466C080911B03BD
:1027C000803309F463C084E026C08091D3029091E5
:1027D000D402A091D502B091D602892B8A2B8B2BE3
:1027E00009F483CF0E94BA080091D3021091D40259
:1027F0002091D5023091D6026C197D098E099F096E
:10280000061717072807390708F06FCF8091D20203
:102810000E94BB1285E01092530310925203109253
:102820005503DF91CF911F910F91FF90EF90DF90B3
:10283000CF9008959D9191938F5F6DCF85EEA9CF35
:102840008091D3029091D402A091D502B091D6028A
:10285000892B8A2B8B2B09F4A2CF0E94BA080091F6
:10286000D3021091D4022091D5023091D6026C1976
:102870007D098E099F09061717072807390708F0F1
:102880008ECFC4CF80E0C7CF82E0C5CF83E0C3CF77
:10289000EF92FF920F931F93CF93DF937C01C62F8C
:1028A00080911C0490911D04009709F459C0209157
:1028B000200431E0309355032093540310925303C6
:1028C00010925203DC01ED91FC910190F081E02D1A
:1028D00060E019958701EE24E394F12CD1E0C1501A
:1028E00080911C0490911D04CF3F91F1B0E2EB1652
:1028F000F104D8F00E94611380911C0490911D0492
:1029000020912004D0935503209354031092530335
:1029100010925203DC01ED91FC910190F081E02DC9
:1029200060E01995EE24E394F12C80911C049091C1
:102930001D04F8016491DC01ED91FC910190F0819E
:10294000E02D1995BFEFEB1AFB0A0F5F1F4FC7CFA2
:10295000DF91CF911F910F91FF90EF900C94611335
:10296000E0912C04F0912D049081809132048095A7
:10297000892380838701C15008F438C0F80184910D
:1029800020911A0430911B04232B29F00E94770C0C
:102990000F5F1F4FF0CF28E030E040E8E0912804BF
:1029A000F091290490913004582F5423D9F050818C
:1029B000952B9083E0912A04F0912B049081509103
:1029C0003104952B9083E0912A04F0912B045081DF
:1029D000909131049095952390834695215031092B
:1029E000E9F6D6CF508190959523E3CFDF91CF9133
:1029F0001F910F91FF90EF9008951F93CF93DF9356
:102A0000EC018D8D9E8D009721F1162F29A131E0CB
:102A100030935503209354031092530310925203A2
:102A2000DC01ED91FC910190F081E02D60E01995C1
:102A30008D8D9E8DDC01ED91FC910190F081E02D5A
:102A4000612F19958D8D9E8DDF91CF911F910C94E3
:102A50006113ADA5BEA59C918BA9809589238C930C
:102A60008B8D9C8D892B31F0862FDF91CF911F911B
:102A70000C94770C28E030E080E8A9A5BAA599A9C4
:102A8000462F4823C1F04C91942B9C93ABA5BCA539
:102A90009C914AA9942B9C93ABA5BCA54C919AA957
:102AA000909594239C9386952150310931F7DF91BD
:102AB000CF911F9108954C9190959423E6CFDF928A
:102AC000EF92FF920F931F93CF93DF9380911C049B
:102AD00090911D04892B09F498C020913404309101
:102AE0003504409136045091370460E074E284EF7D
:102AF00090E00E94882120513109410951095695E1
:102B00004795379527952093B80065E080E29CE0D3
:102B10000E9448146091030461508FEF93E00E947B
:102B2000FD142091050430910604C901079697FD14
:102B3000079633E0959587953A95E1F72091030440
:102B400030910404829F8001839F100D929F100D8D
:102B50001124C0911E04D0911F0480911C049091F7
:102B60001D040C0F1D1F009709F48FC02091200435
:102B700031E0309355032093540310925303109285
:102B80005203DC01ED91FC910190F081E02D60E4B5
:102B90001995EE24E394F12CDD24D39480911C0448
:102BA00090911D040C171D0709F446C0B0E2EB1606
:102BB000F104D8F00E94611380911C0490911D04CF
:102BC00020912004D0925503209354031092530374
:102BD00010925203DC01ED91FC910190F081E02D07
:102BE00060E41995EE24E394F12C80911C049091FB
:102BF0001D046991DC01ED91FC910190F081E02DC3
:102C00001995BFEFEB1AFB0AC9CF80911A04909176
:102C10001B04892B31F080913D0490913E040E9469
:102C20007E0CE0912E04F0912F049081809133046A
:102C300080958923808369CF0E94611380911C0451
:102C400090911D04892B09F461C0209138043091C2
:102C5000390440913A0450913B0460E074E284EFFF
:102C600090E00E948821205131094109510956956F
:102C70004795379527952093B800DF91CF911F9105
:102C80000F91FF90EF90DF900895E0912C04F09168
:102C90002D04808190913204892B80830C171D07AD
:102CA00069F2899120911A0430911B04232B19F0A9
:102CB0000E94770CF3CF28E030E040E8E091280450
:102CC000F091290490913004582F5423D9F0508169
:102CD000952B9083E0912A04F0912B0490815091E0
:102CE0003104952B9083E0912A04F0912B045081BC
:102CF0009091310490959523908346952150310908
:102D0000E9F6CCCF508190959523E3CFE0912E0446
:102D1000F0912F04808190913304892B8083ADCF73
:102D20001F93CF93DF93EC01162F8D8D9E8D892BF2
:102D3000B1F12DA93EA94FA958AD60E074E284EF2E
:102D400090E00E948821205131094109510956958E
:102D50004795379527952093B80066EA111167EAE1
:102D6000CE010E94FD148D8D9E8D892B41F129ADE0
:102D70003AAD4BAD5CAD60E074E284EF90E00E9450
:102D800088212051310941095109569547953795B8
:102D900027952093B800DF91CF911F9108958B8DD7
:102DA0009C8D892B21F08EAD9FAD0E947E0CEFA5EE
:102DB000F8A990818CA9809589238083CECFEFA537
:102DC000F8A980819CA9892B8083E5CF90E080E0E1
:102DD00008952091050430910604C901079697FDD6
:102DE000079623E0959587952A95E1F720910304AE
:102DF00030910404829FA001839F500D929F500D3B
:102E0000112470E060E080911E0490911F040C94E6
:102E1000DC220E94D722FB0101900020E9F73197C4
:102E2000AF01461B570BDC01ED91FC910280F38151
:102E3000E02D19948F929F92AF92BF920F931F93A0
:102E4000CF93DF93CDB7DEB7A1970FB6F894DEBF6F
:102E50000FBECDBF19A2423008F44AE08E010F5DCB
:102E60001F4F842E912CB12CA12CA50194010E94FE
:102E70008821E62FB901CA01EA3004F5E05DD801E6
:102E8000EE938D01232B242B252B79F790E080E006
:102E9000109729F0BD018FEF93E00E940B17A196C8
:102EA0000FB6F894DEBF0FBECDBFDF91CF911F915B
:102EB0000F91BF90AF909F908F900895E95CDFCF06
:102EC0004F925F926F927F928F929F92AF92BF923A
:102ED000CF92DF92EF92FF920F931F93CF936B01EC
:102EE0007C01742EAC019B010E94832166E572E097
:102EF000811126C046015701E894B7F82FEF3FEF44
:102F00004FE75FE7C501B4010E94832181110CC026
:102F10002FEF3FEF4FE75FE7C501B4010E94B91FF4
:102F20006AE572E0181664F02FEF3FEF4FE75FE4B9
:102F3000C701B6010E9411211816ACF46EE572E0CB
:102F40008FEF93E0CF911F910F91FF90EF90DF9063
:102F5000CF90BF90AF909F908F907F906F905F9039
:102F60004F900C940B172FEF3FEF4FE75FECC7012B
:102F7000B6010E94B91F87FDE1CF20E030E0A90132
:102F8000C701B6010E94B91F10E000E087FF0AC028
:102F90006DE28FEF93E00E94BC0E8C01F7FAF09483
:102FA000F7F8F094C0E060E070E080E09FE37C160A
:102FB00041F020E030E040E251E40E94BE1FCF5FCC
:102FC000F6CFA70196010E944D1F2B013C010E94E4
:102FD00030204B015C014AE00E941A177C01E00E90
:102FE000F11ECC23C1F1C501B4010E945F209B01F9
:102FF000AC01C301B2010E944C1F4B015C016EE2A7
:103000008FEF93E00E94BC0EE80EF91EC15018F13C
:1030100020E030E040E251E4C501B4010E941621F5
:103020002B013C010E9430204B01B12CA12C4AE025
:10303000C501B4010E941A17E80EF91EC501B401BA
:103040000E945F209B01AC01C301B2010E944C1F92
:103050004B015C01DBCFC701CF911F910F91FF9016
:10306000EF90DF90CF90BF90AF909F908F907F9028
:103070006F905F904F90089585ED8093BC00809194
:10308000D3029091D402A091D502B091D6020796B6
:10309000A11DB11D23E0B695A795979587952A9513
:1030A000D1F72091BC0024FD03C010921C030895A9
:1030B0004091D3025091D4026091D5027091D60212
:1030C000452B462B472B69F30097A105B10541F02D
:1030D0002AE22A95F1F700C00197A109B109E1CFD1
:1030E0008091D2020C94BB121F920F920FB60F92D6
:1030F00011240BB60F922F933F934F935F936F93CF
:103100007F938F939F93AF93BF93EF93FF9386E546
:1031100093E00E943D07FF91EF91BF91AF919F9186
:103120008F917F916F915F914F913F912F910F9070
:103130000BBE0F900FBE0F901F9018951F920F920D
:103140000FB60F9211240BB60F922F938F939F936C
:10315000EF93FF93E0916603F09167038081E09124
:103160006C03F0916D0382FD1DC0908180916F030F
:103170008F5F8F7320917003821741F0E0916F038E
:10318000F0E0EA5AFC4F958F80936F03FF91EF9127
:103190009F918F912F910F900BBE0F900FBE0F90AC
:1031A0001F9018958081F2CF1F920F920FB60F9249
:1031B00011242F933F938F939F93AF93BF9380914D
:1031C0004E0390914F03A0915003B0915103309161
:1031D000420323E0230F2D3758F50196A11DB11DA1
:1031E0002093420380934E0390934F03A093500388
:1031F000B09351038091430390914403A091450300
:10320000B09146030196A11DB11D80934303909395
:103210004403A0934503B0934603BF91AF919F91A0
:103220008F913F912F910F900FBE0F901F90189587
:1032300026E8230F0296A11DB11DD2CF1F920F9237
:103240000FB60F9211240BB60F922F933F934F930B
:103250005F936F937F938F939F93AF93BF93EF93FE
:10326000FF938091B900887F803609F44DC008F043
:1032700040C0883209F4A9C028F5803109F49DC006
:10328000C8F4882309F4FBC0883009F496C0FF9184
:10329000EF91BF91AF919F918F917F916F915F91CE
:1032A0004F913F912F910F900BBE0F900FBE0F903B
:1032B0001F901895883109F488C0803241F78093B7
:1032C0001B0314C0803409F49DC040F48033B9F36B
:1032D0008833E9F680931B0385ECB0C0803509F490
:1032E00085C0883509F496C0883489F60E943C1858
:1032F000CECF883909F48CC038F5883729F050F4DE
:10330000883611F0803719F683E080931C03109201
:103310001A0357C0883809F47BC0803919F0803807
:1033200009F0B5CF80911A03803208F071C0E091A6
:103330001A0381E08E0F80931A038091BB00F0E0A6
:10334000E650FD4F80833DC0803B39F0E0F4803A89
:1033500009F479C0883A09F09ACF84E080931C037D
:103360001092F9021092F802E0914A03F0914B0397
:1033700019958091F80281110FC081E08093F802C5
:103380001092D80209C0803C09F4A6CF883C09F409
:10339000A3CF883B09F07BCFE091F90281E08E0F4B
:1033A0008093F902F0E0E852FD4F80818093BB00EA
:1033B0009091F9028091F80229C080914103809395
:1033C000BB0085EC8093BC0062CF9091400380915C
:1033D0003F03981758F5E091400381E08E0F8093EA
:1033E0004003F0E0E15EFC4F8081E9CFE0914003D3
:1033F00081E08E0F809340038091BB00F0E0E15E9E
:10340000FC4F80839091400380913F039817C8F24E
:1034100085E8D8CFE091400381E08E0F8093400390
:103420008091BB00F0E0E15EFC4F808380911E0341
:1034300081115CCF81E080931D0384EA8093BC00FE
:1034400010921C0324CF85EC8093BC0010921C03C7
:1034500080911A03803230F4E0911A03F0E0E650D4
:10346000FD4F108260911A0370E0E0914803F091E3
:1034700049038AEF92E0199510921A0308CF10922F
:103480001B0334CFCF93DF93E6E5F3E01382128280
:1034900088EE93E0A0E0B0E084839583A683B783B1
:1034A0002AE032E03183208325EC30E03587248721
:1034B00024EC30E03787268720EC30E0318B208BFE
:1034C00021EC30E0338B228B22EC30E0358B248BE7
:1034D00026EC30E0378B268B118E128E138E148ED5
:1034E000C3EFD3E01B821A828C839D83AE83BF839C
:1034F0008CE192E099838883AFE3B4E087E015968E
:103500008C9315978BE016968C931697E2E7FCE068
:10351000E4911796EC931797ECE2FCE0E49118968F
:10352000EC93189740E85EE360E070E01D964D93E1
:103530005D936D937C935097EFEFF3E013821282CB
:1035400020E830E03583248380E290E0978386830F
:103550003187208793878287168A15861486178677
:10356000168681E0858B848B2FEF3FEF338B228B88
:10357000318B208B878B108E128E118E8EE292E013
:1035800091838083148E138ED68FC58F10A2178ED1
:103590008FEF84A385A386A387A384E080A780E818
:1035A0009AE1A6E0B0E085AB96ABA7ABB0AF80EAFE
:1035B00096E8A1E0B0E081AF92AFA3AFB4AF80E5F1
:1035C00086AF17AEDF91CF910895789484B582606D
:1035D00084BD84B5816084BD85B5826085BD85B5B7
:1035E000816085BD80916E00816080936E00109235
:1035F00081008091810082608093810080918100B0
:103600008160809381008091800081608093800040
:103610008091B10084608093B1008091B00081609E
:103620008093B0008091910082608093910080919E
:1036300091008160809391008091900081608093DF
:1036400090008091A10082608093A1008091A100F0
:1036500081608093A1008091A00081608093A00090
:1036600080912101826080932101809121018160FC
:1036700080932101809120018160809320018091BD
:103680007A00846080937A0080917A0082608093CF
:103690007A0080917A00816080937A0080917A002C
:1036A000806880937A001092C10061E088E00E94F7
:1036B000890861E089E00E94890861E08AE00E944F
:1036C0008908E0916603F091670382E08083E091CE
:1036D0006203F09163031082E0916403F09165034B
:1036E0008FEC808310926E03E0916A03F0916B037C
:1036F00086E08083E0916803F091690380818061B6
:103700008083E0916803F091690380818860808301
:10371000E0916803F0916903808180688083E09183
:103720006803F091690380818F7D808380911E04FE
:1037300090911F04892B11F10E94E9162091050434
:1037400030910604809103049091040421323105E4
:103750000CF04AC0B9016052710977FF02C06F5F77
:103760007F4F759567958357910997FD019600E204
:1037700010E023E730E04CE457E049C02091050415
:1037800030910604C901079697FD0796B3E0959519
:103790008795BA95E1F72091030430910404AC01B8
:1037A000429FC001439F900D529F900D11240E9493
:1037B000B22190931F0480931E04892B09F0BCCF83
:1037C000CCEEDBE0FE016491662339F086E593E000
:1037D0000E945F072196892BA9F762E672E086E5D1
:1037E00093E00E940B17FFCFB9016054710977FF76
:1037F00002C06F5F7F4F759567958255910997FD60
:10380000019600E410E022E530E04CE259E09595A5
:1038100087950E94681182E08093210480911C04A6
:1038200090911D04892B09F43AC18CE38093200404
:1038300010924D0310924C031092530310925203B6
:103840000E949D1287EC96E090934B0380934A036D
:1038500088EC96E090934903809348038091270475
:1038600087FD1EC061E00E94890861E08091270405
:103870000E94FD0761E070E080E090E00E94DF08B8
:1038800060E0809127040E94FD076AE070E080E01C
:1038900090E00E94DF0861E0809127040E94FD070C
:1038A00080911C0490911D04892B09F4B7C12091CB
:1038B000340430913504409136045091370460E06F
:1038C00074E284EF90E00E9488212051310941097F
:1038D000510956954795379527952093B80064E090
:1038E0008EE297E00E9448146091050461508FEFCA
:1038F00093E00E94FD1464E08AE297E00E9448147D
:103900008091210460E1813009F064E18FEF93E060
:103910000E94FD1464E086E297E00E9448148FE85C
:1039200080933C04809103049091040480389105B5
:1039300009F08DC1809105049091060480349105B1
:1039400009F095C180912104813009F07EC18FE991
:1039500080933C04C2E16AED8FEF93E00E94FD1476
:103960006C2F8FEF93E00E94FD1461E88FEF93E0DE
:103970000E94FD1460913C048FEF93E00E94FD14BF
:1039800069ED8FEF93E00E94FD148091210462E2C3
:10399000813009F061EF8FEF93E00E94FD1466E043
:1039A00080E297E00E94481480911C0490911D04CD
:1039B000892B09F460C12091380430913904409179
:1039C0003A0450913B0460E074E284EF90E00E947E
:1039D000882120513109410951095695479537955C
:1039E00027952093B80062E0809144040E948908E2
:1039F0002FB7F89480914E0390914F03A0915003FC
:103A0000B09151032FBF805D9740A109B109809308
:103A1000480490934904A0934A04B0934B0487E36D
:103A2000809351040E945F1560ED77E080E090E0A4
:103A30000E94DF080E94E91681E0809313048093BE
:103A4000140481E090E09093120480931104909309
:103A5000100480930F0465E672E08FEF93E00E94FC
:103A60000B1762E672E08FEF93E00E940B170E9443
:103A70005F150E941109882359F0809145048B300D
:103A800038F08D3008F401C18551823008F42EC120
:103A9000812C912C20ECA22E2FE7B22E14C161E0D4
:103AA000809125040E94890861E0809126040E948B
:103AB000890880912504082E000C990BFC01EB5D10
:103AC000F34FE491F0E0EE0FFF1FEE5CF84F25910D
:103AD000349130932D0420932C04FC01E559F34FCD
:103AE000E491E093320480912604082E000C990B97
:103AF000FC01EB5DF34FE491F0E0EE0FFF1FEE5C95
:103B0000F84FA591B491B0932F04A0932E04FC011B
:103B1000E559F34FE491E09333048C91E82BEC9357
:103B200080911A0490911B04892B09F434C0CFB7FB
:103B3000F89480914703811127C0EAE5FCE0849165
:103B4000E0EAFCE09491E82FF0E0EE0FFF1FEA5F5F
:103B5000F84FA591B491EC91E92321F461E085E35C
:103B60000E94FD0761E085E30E9489088CB58061B1
:103B70008CBD8CB580648CBD61E084E30E948908B3
:103B800061E083E30E948908809147038F5F8093FF
:103B90004703CFBF63CE61E0809123040E94890870
:103BA00061E0809124040E94890880912304082EFA
:103BB000000C990BFC01EB5DF34FE491F0E0EE0F8C
:103BC000FF1FEE5CF84F2591349130932904209328
:103BD0002804FC01E559F34FE491E093300480910F
:103BE0002404082E000C990BFC01EB5DF34FE491CB
:103BF000F0E0EE0FFF1FEE5CF84FA591B491B0938B
:103C00002B04A0932A04FC01E559F34FE491E093BF
:103C100031048C91E095E823EC9320CE80911A0436
:103C200090911B04892B31F080913D0490913E04CA
:103C30000E947E0CE0912E04F0912F0490818091DF
:103C400033048095892380834ACE8FEC81CE8036E1
:103C5000910569F48091050490910604409739F428
:103C600080912104813029F480E180933C04C2E0FA
:103C700072CE8FEAFACFE0912E04F0912F0480816A
:103C800090913304892B8083AECE6091400470E024
:103C900090E080E00E9461202DEC3CEC4CEC5DE378
:103CA0000E9416216B017C0160913F0470E090E05E
:103CB00080E00E9461209B01AC01C701B6010E9417
:103CC0004D1F4B015C010E941109882341F0809136
:103CD00045048C3009F4ACC0D8F48B3091F1C12C80
:103CE000D12C80ECE82E8FE7F82E55C060913F0470
:103CF0007091400476276727762790E080E00E9445
:103D00005F202DEC3CEC4CEC5DE30E941621D9CFFA
:103D10008551823020F7C09141046C2F70E0762FDE
:103D2000662766277F7780914204682B90E080E0C9
:103D30000E945F202DEC3CEC4CEC5DE30E941621D0
:103D400093C06091410470E090E080E00E945F20A9
:103D50006B017C01C0914204C7FF0AC0AC019B010A
:103D600060E070E080E89FEB0E944C1F6B017C01DB
:103D7000CF706C2F70E090E080E00E9461202DEC0D
:103D80003CEC4CEC5DE30E941621A70196010E94D9
:103D90004D1F6B017C010E94E91610920C041092D9
:103DA0000B0410920E0410920D0460E772E08FEF86
:103DB00093E00E940B1762E672E08FEF93E00E949F
:103DC0000B17A5019401C501B4010E948321811143
:103DD00011C066E772E08FEF93E00E940B1742E09C
:103DE000C501B4010E94601762E672E08FEF93E0B4
:103DF0000E940B17A7019601C701B6010E948321FB
:103E0000811111C063E872E08FEF93E00E940B17FD
:103E100042E0C701B6010E94601762E672E08FEFD0
:103E200093E00E940B170E945F150E94CC0721CEE1
:103E3000C09141046C2F70E090E080E00E945F2010
:103E40006B017C01609142046F7070E090E080E053
:103E50000E9461202DEC3CEC4CEC5DE30E941621AD
:103E6000A70196010E944D1F6B017C01C7FF93CFF4
:103E7000F7FAF094F7F8F0948ECF8EE292E09093F8
:103E800000048093FF0380911E0490911F0400970B
:103E900011F00C944E2208955058BB27AA270E9477
:103EA000641F0C94D7200E94C92038F00E94D020B3
:103EB00020F039F49F3F19F426F40C94C6200EF438
:103EC000E095E7FB0C94C020E92F0E94E82058F30E
:103ED000BA17620773078407950720F079F4A6F5EF
:103EE0000C940A210EF4E0950B2EBA2FA02D0B0195
:103EF000B90190010C01CA01A0011124FF27591B2F
:103F000099F0593F50F4503E68F11A16F040A22F34
:103F1000232F342F4427585FF3CF469537952795A5
:103F2000A795F0405395C9F77EF41F16BA0B620BA4
:103F3000730B840BBAF09150A1F0FF0FBB1F661FEB
:103F4000771F881FC2F70EC0BA0F621F731F841F2E
:103F500048F4879577956795B795F7959E3F08F054
:103F6000B0CF9395880F08F09927EE0F9795879516
:103F700008950E949C2008F481E008950E94D21FB9
:103F80000C94D7200E94D02058F00E94C92040F005
:103F900029F45F3F29F00C94C02051110C940B219F
:103FA0000C94C6200E94E82068F39923B1F35523AE
:103FB00091F3951B550BBB27AA276217730784073C
:103FC00038F09F5F5F4F220F331F441FAA1FA9F3D2
:103FD00035D00E2E3AF0E0E832D091505040E695C0
:103FE000001CCAF72BD0FE2F29D0660F771F881F21
:103FF000BB1F261737074807AB07B0E809F0BB0B14
:10400000802DBF01FF2793585F4F3AF09E3F510527
:1040100078F00C94C0200C940B215F3FE4F3983EA1
:10402000D4F3869577956795B795F7959F5FC9F710
:10403000880F911D9695879597F90895E1E0660F91
:10404000771F881FBB1F621773078407BA0720F00A
:10405000621B730B840BBA0BEE1F88F7E095089573
:104060000E94F02088F09F5798F0B92F9927B751F8
:10407000B0F0E1F0660F771F881F991F1AF0BA950C
:10408000C9F714C0B13091F00E940A21B1E008953F
:104090000C940A21672F782F8827B85F39F0B93F31
:1040A000CCF3869577956795B395D9F73EF49095BF
:1040B0008095709561957F4F8F4F9F4F0895E8943D
:1040C00009C097FB3EF490958095709561957F4F60
:1040D0008F4F9F4F9923A9F0F92F96E9BB2793950E
:1040E000F695879577956795B795F111F8CFFAF41E
:1040F000BB0F11F460FF1BC06F5F7F4F8F4F9F4F4F
:1041000016C0882311F096E911C0772321F09EE8AC
:10411000872F762F05C0662371F096E8862F70E012
:1041200060E02AF09A95660F771F881FDAF7880FEC
:104130009695879597F90895990F0008550FAA0B42
:10414000E0E8FEEF16161706E807F907C0F01216AA
:104150001306E407F50798F0621B730B840B950BAD
:1041600039F40A2661F0232B242B252B21F4089502
:104170000A2609F4A140A6958FEF811D811D08959F
:1041800097F99F6780E870E060E008959FEF80EC0A
:10419000089500240A9416161706180609060895AD
:1041A00000240A9412161306140605060895092E13
:1041B0000394000C11F4882352F0BB0F40F4BF2B82
:1041C00011F460FF04C06F5F7F4F8F4F9F4F0895C2
:1041D00057FD9058440F551F59F05F3F71F04795B8
:1041E000880F97FB991F61F09F3F79F0879508959D
:1041F000121613061406551FF2CF4695F1DF08C0BC
:10420000161617061806991FF1CF869571056105D8
:1042100008940895E894BB2766277727CB0197F980
:1042200008950E949C2008F48FEF08950E94292190
:104230000C94D7200E94C92038F00E94D02020F092
:10424000952311F00C94C0200C94C62011240C94DA
:104250000B210E94E82070F3959FC1F3950F50E069
:10426000551F629FF001729FBB27F00DB11D639F28
:10427000AA27F00DB11DAA1F649F6627B00DA11DCE
:10428000661F829F2227B00DA11D621F739FB00D74
:10429000A11D621F839FA00D611D221F749F3327E4
:1042A000A00D611D231F849F600D211D822F762F7D
:1042B0006A2F11249F5750409AF0F1F088234AF05A
:1042C000EE0FFF1FBB1F661F771F881F91505040C6
:1042D000A9F79E3F510580F00C94C0200C940B214F
:1042E0005F3FE4F3983ED4F3869577956795B7954D
:1042F000F795E7959F5FC1F7FE2B880F911D969567
:10430000879597F908950E949C20880B990B089532
:10431000A1E21A2EAA1BBB1BFD010DC0AA1FBB1FC9
:10432000EE1FFF1FA217B307E407F50720F0A21B3B
:10433000B30BE40BF50B661F771F881F991F1A94A8
:1043400069F760957095809590959B01AC01BD01D2
:10435000CF010895EE0FFF1F881F8BBF0790F691C6
:10436000E02D19940F931F93CF93DF938230910523
:1043700010F482E090E0E0915404F091550430E0B4
:1043800020E0B0E0A0E0309799F42115310509F460
:104390004AC0281B390B24303105D8F58A819B810E
:1043A0006115710589F1FB0193838283FE0111C0C0
:1043B000408151810281138148175907E0F0481765
:1043C000590799F4109761F012960C93129713966F
:1043D0001C933296CF01DF91CF911F910F910895D9
:1043E0000093540410935504F4CF2115310551F076
:1043F0004217530738F0A901DB019A01BD01DF0123
:10440000F801C1CFEF01F9CF909355048093540484
:10441000CDCFFE01E20FF31F81939193225031091A
:1044200039832883D7CF2091520430915304232B12
:1044300041F42091020230910302309353042093FF
:10444000520420910002309101022115310541F4FE
:104450002DB73EB74091040250910502241B350B45
:10446000E0915204F0915304E217F307A0F42E1BDD
:104470003F0B2817390778F0AC014E5F5F4F2417C8
:10448000350748F04E0F5F1F50935304409352047A
:10449000819391939FCFF0E0E0E09CCFCF93DF93A7
:1044A0000097E9F0FC01329713821282A091540424
:1044B000B0915504ED0130E020E01097A1F4208187
:1044C0003181820F931F2091520430915304281799
:1044D000390709F061C0F0935304E0935204DF916F
:1044E000CF910895EA01CE17DF07E8F54A815B8195
:1044F0009E0141155105B1F7E901FB83EA8349911A
:104500005991C40FD51FEC17FD0761F4808191818B
:104510000296840F951FE901998388838281938194
:104520009B838A83F0E0E0E012968D919C91139733
:104530000097B9F52D913C911197CD010296820F0C
:10454000931F20915204309153042817390739F6EC
:10455000309751F51092550410925404B0935304BF
:10456000A0935204BCCFD383C28340815181840F76
:10457000951FC817D90761F44E5F5F4F88819981F5
:10458000480F591F518340838A819B819383828383
:104590002115310509F0B0CFF0935504E093540490
:1045A0009ECFFD01DC01C0CF13821282D7CF81E004
:1045B00090E0F8940C94E322DC0101C06D9341502B
:1045C0005040E0F7089516E0CAE5D6E000E006C0E6
:1045D000802FFE010E94AA212196011DCB35D10713
:1045E00080E00807A9F7F894FFCF00005604800088
:1045F000000000005F07C906F606AC07270705079D
:1046000019070000000032130513E6168E06FE128D
:10461000EB12DC1200000000BC0EC906E616751293
:10462000C70B8E066111391155114911C9118E063A
:10463000820C9016370B800B82106510ED0F8E0FD9
:104640006E616E00696E66006F7666000D0A00533B
:104650006574757020646F6E65004448543A20009C
:10466000202048756D696E6974793A2000202054C5
:10467000656D70657261747572652000FFFFFFFFE4
:10468000FFFFFFFFFFFFFFFFFFFFFFFFFFFFFFFF3A
:10469000FFFFFFFFFFFFFFFFFFFFFFFFFFFFFFFF2A
:1046A000FFFFFFFFFFFFFFFFFFFFFFFFFFFFFFFF1A
:1046B000FFFFFFFFFFFFFFFFFFFFFFFFFFFFFFFF0A
:1046C000FFFFFFFFFFFFFFFFFFFFFFFFFFFFFFFFFA
:1046D000FFFFFFFFFFFFFFFFFFFFFFFFFFFFFFFFEA
:1046E000FFFFFFFFFFFFFFFFFFFFFFFFFFFFFFFFDA
:1046F000FFFFFFFFFFFFFFFFFFFFFFFFFFFFFFFFCA
:1047000030E020E01097A1F420813181820F931FC7
:1047100020919304309194042817390709F061C05F
:10472000F0939404E0939304DF91CF910895EA010C
:10473000CE17DF07E8F54A815B819E0141155105DF
:10474000B1F7E901FB83EA8349915991C40FD51F61
:10475000EC17FD0761F4808191810296840F951F0B
:10476000E90199838883828193819B838A83F0E026
:10477000E0E012968D919C9113970097B9F52D91D9
:104780003C911197CD010296820F931F20919304C3
:10479000309194042817390739F6309751F5109263
:1047A000960410929504B0939404A0939304BCCF04
:1047B000D383C28340815181840F951FC817D907C5
:1047C00061F44E5F5F4F88819981480F591F518373
:1047D00040838A819B81938382832115310509F06F
:1047E000B0CFF0939604E09395049ECFFD01DC01D9
:1047F000C0CF13821282D7CF81E090E0F8940C945E
:104800000824DC0101C06D9341505040E0F7089549
:1048100016E0C0E6D6E000E006C0802FFE010E9450
:10482000B9222196011DC136D10780E00807A9F7FA
:10483000F894FFCFF908F908F908F908F908F90818
:10484000F908F908D0070000970480000000000074
:104850004607B006DD0693070E07EC0600070000CA
:1048600000000C12DF11C0159A06D811C511B6113F
:1048700000000000960DB006C0154F11A10A9A065F
:104880003B1013102F102310A3109A065C0B6A150F
:10489000110A5A0A5C0F3F0FC70E680E0D0A006618
:1048A0006C61672076616C75653A2000427574749E
:1048B0006F6E20707265737365643A2000434D3AE1
:1048C00000493A004D533A00463A004C3A00423A09
:1048D00000446174612053697A653A20004E65771F
:1048E0002054696D65723A20004572726F723A20E9
:1048F0000000FFFFFFFFFFFFFFFFFFFFFFFFFFFFC6
:104900000E94361362E08CEC9BE00E94F41460E09D
:104910008BEC93E00E94A91560E08BEC93E00E9481
:10492000A9156FE08BEC93E00E94A91563E089EC78
:104930009BE00E94F4148091E8039091E903892B95
:1049400009F459C260910404709105048091060431
:10495000909107040E94361360ED77E080E090E0CC
:104960000E94DA080E94261768EE73E080E090E06B
:104970000E94DA088091E8039091E903892B09F4F9
:1049800044C26091000470910104809102049091EE
:1049900003040E94361362E081ED9BE00E94F41450
:1049A00060E08BEC93E00E94A91560E08BEC93E053
:1049B0000E94A9156FE08BEC93E00E94A91563E0BB
:1049C0008EEC9BE00E94F4148091E8039091E9033F
:1049D000892B09F431C2609104047091050480911F
:1049E0000604909107040E94361360ED77E080E0A2
:1049F00090E00E94DA080E94261768EE73E080E0DB
:104A000090E00E94DA088091E8039091E903892BF5
:104A100009F41CC2609100047091010480910204A9
:104A2000909103040E94361362E087ED9BE00E94A0
:104A3000F4146091D1038BEC93E00E94A91562E01D
:104A400085ED9BE00E94F41460E08BEC93E00E9403
:104A5000A91560E08BEC93E00E94A91567E08BEC50
:104A600093E00E94A91562E083ED9BE00E94F4149C
:104A70008091E8039091E903892B09F4FEC16091CC
:104A800004047091050480910604909107040E942B
:104A9000361360ED77E080E090E00E94DA088091C4
:104AA000E8039091E903892B09F4F1C160910004B6
:104AB0007091010480910204909103040E943613C6
:104AC00062E08DED9BE00E94F4146091D1038BECC9
:104AD00093E00E94A91562E08BED9BE00E94F41424
:104AE00060E08BEC93E00E94A91560E08BEC93E012
:104AF0000E94A91567E08BEC93E00E94A91562E083
:104B000089ED9BE00E94F4148091E8039091E90301
:104B1000892B09F4D3C1609104047091050480913C
:104B20000604909107040E94361360ED77E080E060
:104B300090E00E94DA080E94261768EE73E080E099
:104B400090E00E94DA080E94AB178091D503909103
:104B5000D603AC014051510957FF02C04F5F5F4F70
:104B6000559547958091D3039091D403BC01605132
:104B7000710977FF02C06F5F7F4F75956795F0E110
:104B8000EF2EF12C00E110E025EF3BE08BEC93E001
:104B90000E94ED110E940B1668EE73E080E090E039
:104BA0000E94DA0861E08BEC93E00E946C1768EEDB
:104BB00073E080E090E00E94DA0860E08BEC93E024
:104BC0000E946C1768EE73E080E090E00E94DA08C3
:104BD0008E010F5F1F4FAAE07A2EB0EF6B2E85E09B
:104BE000282E312C412C512CC090D303D090D403CB
:104BF0000D2C000CEE08FF0831EF832E99249A94B7
:104C0000A92CB92CE2EFCE16EFEFDE06EE06FE067B
:104C10008CF00E946728A7019601215F3F4F4F4FFC
:104C20005F4F0E94BF284B015C01FFE08F1A910883
:104C3000A108B108D8018C9211966C920E94672845
:104C4000A20191010E94BF286B017C01BFEFCB1A2A
:104C5000DB0AEB0AFB0AF801C28261EF7BE082E229
:104C600093E00E94D106882D880C990B0E944B1866
:104C70006CEE7BE082E293E00E94D10680EF9FEF32
:104C80000E944B1866EE7BE082E293E00E94D10620
:104C9000F7FE1EC1C701B6010E9428186AE572E03E
:104CA00082E293E00E94CD177A940D5F1F4F71103E
:104CB0009BCF01E010E00C0F1D1F025E1F4F18A3D9
:104CC0000F8F90EF392E25E0422E512C612C712C44
:104CD0000E94AB179E012F5F3F4F6901D6011196CD
:104CE0004C911197042E000C550B6C91062E000C64
:104CF000770B80E1E82EF12C00E110E025EF3BE09E
:104D00008BEC93E00E94ED11B3E0CB0ED11CEF8D44
:104D1000F8A1EC15FD0511F70E940B1668EC70E088
:104D200080E090E00E94DA088E010F5F1F4FD801EB
:104D300011968C91119712969C911297890F11964A
:104D40008C93082E000C990B2091D5033091D6033B
:104D50008217930794F18090D3039090D403092C89
:104D6000000CAA08BB0881EF9FEFAFEFBFEFB2EFD7
:104D70008B16BFEF9B06AB06BB067CF00E94672834
:104D8000A5019401215F3F4F4F4F5F4F0E94BF2805
:104D9000DC01CB010F97A109B109F80180833182B1
:104DA0000E946728A30192010E94BF286F5F7F4F76
:104DB0008F4F9F4FD80112966C930D5F1F4FC016F7
:104DC000D10609F0B4CF84CF8091E6039091E70338
:104DD000892B31F08091090490910A040E946A0B9A
:104DE000E091FA03F091FB0390818091FF0380959D
:104DF0008923808387CDE091FA03F091FB038081C2
:104E00009091FF03892B8083A7CD8091E603909139
:104E1000E703892B31F08091090490910A040E94E4
:104E20006A0BE091FA03F091FB0390818091FF03FC
:104E3000809589238083AFCDE091FA03F091FB0345
:104E400080819091FF03892B8083CFCD8091E603F1
:104E50009091E703892B31F08091090490910A0425
:104E60000E946A0BE091FA03F091FB03908180911C
:104E7000FF03809589238083D7CDE091FA03F091D9
:104E8000FB0380819091FF03892B808302CE809168
:104E9000E6039091E703892B31F08091090490910A
:104EA0000A040E946A0BE091FA03F091FB039081DF
:104EB0008091FF0380958923808302CEE091FA03DD
:104EC000F091FB0380819091FF03892B80832DCE8D
:104ED0002AE0B701A60182E293E00E94DC17DECE51
:104EE000A4014C195D09EF8DF8A1EA19FB09FCA793
:104EF000EBA7002711270E191F091AA709A7FAA364
:104F0000E9A39501215031093CAB2BABBEA2ADA268
:104F100090E080E02DA03EA01FA618AA19AA1AAA08
:104F2000412C512C320187010F2C000C220B330B2A
:104F30000DAB1EAB2FAB38AF8C01990F220B330B8F
:104F400009AF1AAF2BAF3CAF6BA57CA5072E000CA9
:104F5000880B990B21966CAF7DAF8EAF9FAF2197D9
:104F6000CA01550FAA0BBB0B25968CAF9DAFAEAFF8
:104F7000BFAF2597ABA9BCA9A215B3050CF458CBBC
:104F8000C301B20129AD3AAD4BAD5CAD0E94BF2863
:104F90008601020F131F6FA578A989A99AA92196E6
:104FA0002CAD3DAD4EAD5FAD21970E94BF28B6013F
:104FB000620F731F25962CAD3DAD4EAD5FAD2597AD
:104FC000420E531E641E751E8FA598A9A9A9BAA9E1
:104FD0002DA93EA94FA958AD820F931FA41FB51F3D
:104FE0008FA798ABA9ABBAAB601771072CF0962FBF
:104FF000872FB801092F182F061B170B98012F5F59
:105000003F4F02E010E0A1018BEC93E00E943510CD
:105010003FEF231A330AAECF82E392E09093CC03A2
:105020008093CB038091EA039091EB03009711F0FA
:105030000C94D52908958F929F92AF92BF92CF92F0
:10504000DF92EF92FF92CF93DF93EC016881798139
:105050008A819B81611571058105910521F464E2C6
:1050600079ED8BE597E02DE133EF41E050E00E94D0
:10507000BF2849015A019B01AC01A7EAB1E40E9493
:10508000DE286B017C01ACEEB4EFA50194010E9417
:10509000EC28C60ED71EE81EF91EF7FE06C081E0FA
:1050A000C81AD108E10880E8F80AC882D982EA82E1
:1050B000FB82C701B6019F77DF91CF91FF90EF9000
:1050C000DF90CF90BF90AF909F908F9008958F9278
:1050D0009F92AF92BF92CF92DF92EF92FF92609138
:1050E0000002709101028091020290910302611509
:1050F00071058105910521F464E279ED8BE597E076
:105100002DE133EF41E050E00E94BF2849015A01F0
:105110009B01AC01A7EAB1E40E94DE286B017C018F
:10512000ACEEB4EFA50194010E94EC28C60ED71E88
:10513000E81EF91EF7FE06C081E0C81AD108E10892
:1051400080E8F80AC0920002D0920102E0920202C6
:10515000F0920302C701B6019F77FF90EF90DF90B6
:10516000CF90BF90AF909F908F9008956093000272
:105170007093010280930202909303020895052E1A
:1051800097FB1EF400940E94D62857FD07D00E947A
:10519000F12807FC03D04EF40C94D6285095409586
:1051A000309521953F4F4F4F5F4F089590958095D3
:1051B000709561957F4F8F4F9F4F08950E941329DF
:1051C000A59F900DB49F900DA49F800D911D11245B
:1051D0000895B7FF0C94DE280E94DE28821B930BF3
:1051E0000895A1E21A2EAA1BBB1BFD010DC0AA1F28
:1051F000BB1FEE1FFF1FA217B307E407F50720F040
:10520000A21BB30BE40BF50B661F771F881F991FBA
:105210001A9469F760957095809590959B01AC0103
:10522000BD01CF010895A29FB001B39FC001A39F0C
:10523000700D811D1124911DB29F700D811D1124CF
:10524000911D0895EE0FFF1F881F8BBF0790F691E9
:10525000E02D19940E941329332312F48A1B9B0B0F
:105260000C9434290E941329B7FF0895821B930BD5
:1052700008950F931F93CF93DF938230910510F41D
:1052800082E090E0E0910D04F0910E0430E020E027
:10529000B0E0A0E0309799F42115310509F44AC037
:1052A000281B390B24303105D8F58A819B81611583
:1052B000710589F1FB0193838283FE0111C0408156
:1052C00051810281138148175907E0F048175907A7
:1052D00099F4109761F012960C93129713961C9301
:1052E0003296CF01DF91CF911F910F9108950093D6
:1052F0000D0410930E04F4CF2115310551F042171F
:10530000530738F0A901DB019A01BD01DF01F80163
:10531000C1CFEF01F9CF90930E0480930D04CDCF50
:10532000FE01E20FF31F81939193225031093983DB
:105330002883D7CF20910B0430910C04232B41F408
:10534000209106023091070230930C0420930B0445
:1053500020910402309105022115310541F42DB749
:105360003EB74091080250910902241B350BE09191
:105370000B04F0910C04E217F307A0F42E1B3F0B73
:105380002817390778F0AC014E5F5F4F24173507B7
:1053900048F04E0F5F1F50930C0440930B04819311
:1053A00091939FCFF0E0E0E09CCFCF93DF93009705
:1053B000E9F0FC01329713821282A0910D04B091A2
:1053C0000E04ED0130E020E01097A1F4208131813E
:1053D000820F931F20910B0430910C04281739077A
:1053E00009F061C0F0930C04E0930B04DF91CF91BE
:1053F0000895EA01CE17DF07E8F54A815B819E0137
:1054000041155105B1F7E901FB83EA8349915991AF
:10541000C40FD51FEC17FD0761F4808191810296BE
:10542000840F951FE90199838883828193819B83EF
:105430008A83F0E0E0E012968D919C91139700979B
:10544000B9F52D913C911197CD010296820F931FD2
:1054500020910B0430910C042817390739F6309746
:1054600051F510920E0410920D04B0930C04A09309
:105470000B04BCCFD383C28340815181840F951F1D
:10548000C817D90761F44E5F5F4F88819981480F33
:10549000591F518340838A819B8193838283211585
:1054A000310509F0B0CFF0930E04E0930D049ECFC8
:1054B000FD01DC01C0CF13821282D7CF81E090E0E2
:1054C000F8940C946A2ADC0101C06D93415050405D
:1054D000E0F7089516E0CBE7D6E000E006C0802FA5
:1054E000FE010E9422292196011DCC37D10780E0C0
:1054F0000807A9F7F894FFCF0100000000000F048F
:105500008000000000008B07F5062207D80753072C
:105510003107450700000000DE13B113A817AF06DE
:10552000AA139713881300000000A80DF506A8170A
:105530000E13B30AAF062611251041103510621262
:10554000AF066E0B6C17230A6C0A6E0F510FD90E43
:105550007A0E0D0A0000FFFFFFFFFFFFFFFFFFFFB6
:10556000FFFFFFFFFFFFFFFFFFFFFFFFFFFFFFFF4B
:10557000FFFFFFFFFFFFFFFFFFFFFFFFFFFFFFFF3B
:10558000FFFFFFFFFFFFFFFFFFFFFFFFFFFFFFFF2B
:10559000FFFFFFFFFFFFFFFFFFFFFFFFFFFFFFFF1B
:020000023000CC
:10E000000D9489F10D94B2F10D94B2F10D94B2F129
:10E010000D94B2F10D94B2F10D94B2F10D94B2F1F0
:10E020000D94B2F10D94B2F10D94B2F10D94B2F1E0
:10E030000D94B2F10D94B2F10D94B2F10D94B2F1D0
:10E040000D94B2F10D94B2F10D94B2F10D94B2F1C0
:10E050000D94B2F10D94B2F10D94B2F10D94B2F1B0
:10E060000D94B2F10D94B2F10D94B2F10D94B2F1A0
:10E070000D94B2F10D94B2F10D94B2F10D94B2F190
:10E080000D94B2F10D94B2F10D94B2F10D94B2F180
:10E090000D94B2F10D94B2F10D94B2F10D94B2F170
:10E0A0000D94B2F10D94B2F10D94B2F10D94B2F160
:10E0B0000D94B2F10D94B2F10D94B2F10D94B2F150
:10E0C0000D94B2F10D94B2F10D94B2F10D94B2F140
:10E0D0000D94B2F10D94B2F10D94B2F10D94B2F130
:10E0E0000D94B2F141546D656761323536300041AF
:10E0F000726475696E6F206578706C6F72657220DE
:10E1000073746B3530305632206279204D4C530099
:10E11000426F6F746C6F616465723E004875683F52
:10E1200000436F6D70696C6564206F6E203D200048
:10E130004350552054797065202020203D20005FF9
:10E140005F4156525F415243485F5F3D2000415658
:10E1500052204C696243205665723D20004743437C
:10E160002056657273696F6E203D20004350552024
:10E1700049442020202020203D20004C6F7720663D
:10E18000757365202020203D20004869676820665F
:10E190007573652020203D200045787420667573D6
:10E1A00065202020203D20004C6F636B2066757336
:10E1B000652020203D20004D617220203720323024
:10E1C000313300312E362E3800342E332E350056A2
:10E1D00023202020414444522020206F7020636F70
:10E1E00064652020202020696E73747275637469E1
:10E1F0006F6E2061646472202020496E74657272B3
:10E20000757074006E6F20766563746F7200726A49
:10E210006D702020006A6D70200057686174207056
:10E220006F72743A00506F7274206E6F7420737541
:10E2300070706F72746564004D7573742062652030
:10E2400061206C6574746572002000577269747483
:10E25000696E672045450052656164696E672045B7
:10E26000450045452065727220636E743D00504F35
:10E27000525400303D5A65726F2061646472003FF1
:10E280003D43505520737461747300403D454550C3
:10E29000524F4D207465737400423D426C696E6B41
:10E2A000204C454400453D44756D70204545505215
:10E2B0004F4D00463D44756D7020464C415348001B
:10E2C000483D48656C70004C3D4C69737420492F83
:10E2D0004F20506F72747300513D51756974005234
:10E2E0003D44756D702052414D00563D73686F7707
:10E2F00020696E7465727275707420566563746FF0
:10E30000727300593D506F727420626C696E6B00BD
:10E310002A0011241FBECFEFD1E2DEBFCDBF01E046
:10E320000CBF12E0A0E0B2E0EEE1FDEF03E00BBFB6
:10E3300002C007900D92A030B107D9F712E0A0E01B
:10E34000B2E001C01D92AE30B107E1F70F9460F367
:10E350000D948DFE01E20EBF0FEF0DBF11241FBE05
:10E360000D9460F30D9400F020E030E040ED57E0B4
:10E3700005C0FA013197F1F72F5F3F4F2817390792
:10E38000C0F308959C01260F311DC901A0E0B0E043
:10E390002F5F3F4FABBFFC018791882361F08093D3
:10E3A000C6008091C00086FFFCCF8091C0008064D1
:10E3B0008093C000EACF08958DE08093C6008091DD
:10E3C000C00086FFFCCF8091C00080648093C000B5
:10E3D0008AE08093C6008091C00086FFFCCF8091C8
:10E3E000C00080648093C00008950F94C2F10F9420
:10E3F000DCF10895FC019081992359F09093C600B7
:10E400008091C00086FFFCCF8091C0008064809323
:10E41000C0003196992379F70895282F982F929567
:10E420009F70892F805D8A3308F0895F8093C600D2
:10E430008091C00086FFFCCF8091C00080648093F3
:10E44000C000822F8F70982F905D9A3308F0995FEB
:10E450009093C6008091C00086FFFCCF8091C000E1
:10E4600080648093C00008959C01FB01853691056E
:10E470001CF46330710594F0C90164E670E00F94F8
:10E480002EFE605D7F4F6093C6008091C00086FFC6
:10E49000FCCF8091C00080648093C0002B30310598
:10E4A00014F43297B4F0C90164E670E00F942EFEC4
:10E4B0006AE070E00F942EFE605D7F4F6093C600AF
:10E4C0008091C00086FFFCCF8091C0008064809363
:10E4D000C000C9016AE070E00F942EFEC0968093E0
:10E4E000C6008091C00086FFFCCF8091C000806490
:10E4F0008093C00008951F93182F8EE692EE60E07F
:10E500000F94C2F11093C6008091C00086FFFCCF2B
:10E510008091C00080648093C0000F94DCF11F9153
:10E5200008952F923F924F925F926F927F928F92B7
:10E530009F92AF92BF92CF92DF92EF92FF920F9392
